{
  "_format": "hh-sol-artifact-1",
  "contractName": "Corpus",
  "sourceName": "contracts/DocumentStore.sol",
  "abi": [
    {
      "inputs": [],
      "stateMutability": "nonpayable",
      "type": "constructor"
    },
    {
      "inputs": [
        {
          "internalType": "uint256",
          "name": "",
          "type": "uint256"
        }
      ],
      "name": "corpus",
      "outputs": [
        {
          "internalType": "address",
          "name": "sender",
          "type": "address"
        },
        {
          "internalType": "string",
          "name": "metadata",
          "type": "string"
        }
      ],
      "stateMutability": "view",
      "type": "function"
    },
    {
      "inputs": [
        {
          "internalType": "uint256[]",
          "name": "ids",
          "type": "uint256[]"
        },
        {
          "internalType": "string",
          "name": "metadata",
          "type": "string"
        },
        {
          "internalType": "string[]",
          "name": "chunks",
          "type": "string[]"
        }
      ],
      "name": "insert",
      "outputs": [],
      "stateMutability": "nonpayable",
      "type": "function"
    },
    {
      "inputs": [
        {
          "internalType": "uint256",
          "name": "key",
          "type": "uint256"
        }
      ],
      "name": "removeDocument",
      "outputs": [],
      "stateMutability": "nonpayable",
      "type": "function"
    },
    {
      "inputs": [
        {
          "internalType": "address",
          "name": "sender",
          "type": "address"
        }
      ],
      "name": "removeDocumentBySender",
      "outputs": [
        {
          "internalType": "uint256[]",
          "name": "",
          "type": "uint256[]"
        }
      ],
      "stateMutability": "nonpayable",
      "type": "function"
    },
    {
      "inputs": [
        {
          "internalType": "uint256",
          "name": "key",
          "type": "uint256"
        }
      ],
      "name": "retrieveDocument",
      "outputs": [
        {
          "components": [
            {
              "internalType": "address",
              "name": "sender",
              "type": "address"
            },
            {
              "internalType": "string",
              "name": "metadata",
              "type": "string"
            },
            {
              "internalType": "uint256[]",
              "name": "ids",
              "type": "uint256[]"
            },
            {
              "internalType": "string[]",
              "name": "chunks",
              "type": "string[]"
            }
          ],
          "internalType": "struct Corpus.Document",
          "name": "",
          "type": "tuple"
        }
      ],
      "stateMutability": "view",
      "type": "function"
    },
    {
      "inputs": [
        {
          "internalType": "address",
          "name": "sender",
          "type": "address"
        }
      ],
      "name": "retrieveDocumentKeysBySender",
      "outputs": [
        {
          "internalType": "uint256[]",
          "name": "",
          "type": "uint256[]"
        }
      ],
      "stateMutability": "view",
      "type": "function"
    },
    {
      "inputs": [],
      "name": "retrieveLatestID",
      "outputs": [
        {
          "internalType": "uint256",
          "name": "",
          "type": "uint256"
        }
      ],
      "stateMutability": "view",
      "type": "function"
    },
    {
      "inputs": [],
      "name": "retrieveLatestKey",
      "outputs": [
        {
          "internalType": "int256",
          "name": "",
          "type": "int256"
        }
      ],
      "stateMutability": "view",
      "type": "function"
    }
  ],
  "bytecode": "0x608060405234801561001057600080fd5b506000600167ffffffffffffffff81111561002e5761002d6103a3565b5b60405190808252806020026020018201604052801561005c5781602001602082028036833780820191505090505b509050600181600081518110610075576100746103d2565b5b6020026020010181815250506000600167ffffffffffffffff81111561009e5761009d6103a3565b5b6040519080825280602002602001820160405280156100d157816020015b60608152602001906001900390816100bc5790505b5090506040518060400160405280600481526020017f696e6974000000000000000000000000000000000000000000000000000000008152508160008151811061011e5761011d6103d2565b5b602002602001018190525061016f826040518060400160405280600481526020017f696e6974000000000000000000000000000000000000000000000000000000008152508361017660201b60201c565b50506106f4565b600060405180608001604052803373ffffffffffffffffffffffffffffffffffffffff168152602001848152602001858152602001838152509050600081908060018154018082558091505060019003906000526020600020906004020160009091909190915060008201518160000160006101000a81548173ffffffffffffffffffffffffffffffffffffffff021916908373ffffffffffffffffffffffffffffffffffffffff16021790555060208201518160010190816102399190610622565b50604082015181600201908051906020019061025692919061027c565b5060608201518160030190805190602001906102739291906102c9565b50505050505050565b8280548282559060005260206000209081019282156102b8579160200282015b828111156102b757825182559160200191906001019061029c565b5b5090506102c59190610322565b5090565b828054828255906000526020600020908101928215610311579160200282015b828111156103105782518290816103009190610622565b50916020019190600101906102e9565b5b50905061031e919061033f565b5090565b5b8082111561033b576000816000905550600101610323565b5090565b5b8082111561035f57600081816103569190610363565b50600101610340565b5090565b50805461036f9061043b565b6000825580601f1061038157506103a0565b601f01602090049060005260206000209081019061039f9190610322565b5b50565b7f4e487b7100000000000000000000000000000000000000000000000000000000600052604160045260246000fd5b7f4e487b7100000000000000000000000000000000000000000000000000000000600052603260045260246000fd5b600081519050919050565b7f4e487b7100000000000000000000000000000000000000000000000000000000600052602260045260246000fd5b6000600282049050600182168061045357607f821691505b6020821081036104665761046561040c565b5b50919050565b60008190508160005260206000209050919050565b60006020601f8301049050919050565b600082821b905092915050565b6000600883026104ce7fffffffffffffffffffffffffffffffffffffffffffffffffffffffffffffffff82610491565b6104d88683610491565b95508019841693508086168417925050509392505050565b6000819050919050565b6000819050919050565b600061051f61051a610515846104f0565b6104fa565b6104f0565b9050919050565b6000819050919050565b61053983610504565b61054d61054582610526565b84845461049e565b825550505050565b600090565b610562610555565b61056d818484610530565b505050565b5b818110156105915761058660008261055a565b600181019050610573565b5050565b601f8211156105d6576105a78161046c565b6105b084610481565b810160208510156105bf578190505b6105d36105cb85610481565b830182610572565b50505b505050565b600082821c905092915050565b60006105f9600019846008026105db565b1980831691505092915050565b600061061283836105e8565b9150826002028217905092915050565b61062b82610401565b67ffffffffffffffff811115610644576106436103a3565b5b61064e825461043b565b610659828285610595565b600060209050601f83116001811461068c576000841561067a578287015190505b6106848582610606565b8655506106ec565b601f19841661069a8661046c565b60005b828110156106c25784890151825560018201915060208501945060208101905061069d565b868310156106df57848901516106db601f8916826105e8565b8355505b6001600288020188555050505b505050505050565b611fc2806107036000396000f3fe608060405234801561001057600080fd5b50600436106100885760003560e01c8063c47aeaf41161005b578063c47aeaf414610115578063d18e1a3114610145578063d5df755914610175578063e78377431461019157610088565b80631641834f1461008d578063a78b794f146100a9578063b2e5ba73146100d9578063c1dddb8a146100f7575b600080fd5b6100a760048036038101906100a291906115d1565b6101c2565b005b6100c360048036038101906100be91906116d6565b6102c8565b6040516100d091906117c1565b60405180910390f35b6100e16103bf565b6040516100ee91906117f2565b60405180910390f35b6100ff610681565b60405161010c9190611826565b60405180910390f35b61012f600480360381019061012a91906116d6565b610939565b60405161013c91906117c1565b60405180910390f35b61015f600480360381019061015a9190611841565b610d3c565b60405161016c9190611a9e565b60405180910390f35b61018f600480360381019061018a9190611841565b610f96565b005b6101ab60048036038101906101a69190611841565b611015565b6040516101b9929190611b19565b60405180910390f35b600060405180608001604052803373ffffffffffffffffffffffffffffffffffffffff168152602001848152602001858152602001838152509050600081908060018154018082558091505060019003906000526020600020906004020160009091909190915060008201518160000160006101000a81548173ffffffffffffffffffffffffffffffffffffffff021916908373ffffffffffffffffffffffffffffffffffffffff16021790555060208201518160010190816102859190611d55565b5060408201518160020190805190602001906102a29291906110f1565b5060608201518160030190805190602001906102bf92919061113e565b50505050505050565b606060006102d583610939565b90506000815111156103b65760005b81518110156103b457600082828151811061030257610301611e27565b5b602002602001015111156103a757600082828151811061032557610324611e27565b5b60200260200101518154811061033e5761033d611e27565b5b9060005260206000209060040201600080820160006101000a81549073ffffffffffffffffffffffffffffffffffffffff02191690556001820160006103849190611197565b60028201600061039491906111d7565b6003820160006103a491906111f8565b50505b80806001019150506102e4565b505b80915050919050565b6000806103ca610681565b905060007fffffffffffffffffffffffffffffffffffffffffffffffffffffffffffffffff82131561067957600080838154811061040b5761040a611e27565b5b90600052602060002090600402016040518060800160405290816000820160009054906101000a900473ffffffffffffffffffffffffffffffffffffffff1673ffffffffffffffffffffffffffffffffffffffff1673ffffffffffffffffffffffffffffffffffffffff16815260200160018201805461048a90611b78565b80601f01602080910402602001604051908101604052809291908181526020018280546104b690611b78565b80156105035780601f106104d857610100808354040283529160200191610503565b820191906000526020600020905b8154815290600101906020018083116104e657829003601f168201915b505050505081526020016002820180548060200260200160405190810160405280929190818152602001828054801561055b57602002820191906000526020600020905b815481526020019060010190808311610547575b5050505050815260200160038201805480602002602001604051908101604052809291908181526020016000905b828210156106355783829060005260206000200180546105a890611b78565b80601f01602080910402602001604051908101604052809291908181526020018280546105d490611b78565b80156106215780601f106105f657610100808354040283529160200191610621565b820191906000526020600020905b81548152906001019060200180831161060457829003601f168201915b505050505081526020019060010190610589565b50505050815250509050600060018260400151516106539190611e85565b90508160400151818151811061066c5761066b611e27565b5b6020026020010151925050505b809250505090565b60008060016000805490506106969190611eb9565b90505b7fffffffffffffffffffffffffffffffffffffffffffffffffffffffffffffffff8113156109325760008082815481106106d6576106d5611e27565b5b90600052602060002090600402016040518060800160405290816000820160009054906101000a900473ffffffffffffffffffffffffffffffffffffffff1673ffffffffffffffffffffffffffffffffffffffff1673ffffffffffffffffffffffffffffffffffffffff16815260200160018201805461075590611b78565b80601f016020809104026020016040519081016040528092919081815260200182805461078190611b78565b80156107ce5780601f106107a3576101008083540402835291602001916107ce565b820191906000526020600020905b8154815290600101906020018083116107b157829003601f168201915b505050505081526020016002820180548060200260200160405190810160405280929190818152602001828054801561082657602002820191906000526020600020905b815481526020019060010190808311610812575b5050505050815260200160038201805480602002602001604051908101604052809291908181526020016000905b8282101561090057838290600052602060002001805461087390611b78565b80601f016020809104026020016040519081016040528092919081815260200182805461089f90611b78565b80156108ec5780601f106108c1576101008083540402835291602001916108ec565b820191906000526020600020905b8154815290600101906020018083116108cf57829003601f168201915b505050505081526020019060010190610854565b505050508152505090506000816040015151111561091e5750610932565b818061092990611efc565b92505050610699565b8091505090565b60606000808054905067ffffffffffffffff81111561095b5761095a6112c2565b5b6040519080825280602002602001820160405280156109895781602001602082028036833780820191505090505b5090506000805b600080549050811015610c5a5760008082815481106109b2576109b1611e27565b5b90600052602060002090600402016040518060800160405290816000820160009054906101000a900473ffffffffffffffffffffffffffffffffffffffff1673ffffffffffffffffffffffffffffffffffffffff1673ffffffffffffffffffffffffffffffffffffffff168152602001600182018054610a3190611b78565b80601f0160208091040260200160405190810160405280929190818152602001828054610a5d90611b78565b8015610aaa5780601f10610a7f57610100808354040283529160200191610aaa565b820191906000526020600020905b815481529060010190602001808311610a8d57829003601f168201915b5050505050815260200160028201805480602002602001604051908101604052809291908181526020018280548015610b0257602002820191906000526020600020905b815481526020019060010190808311610aee575b5050505050815260200160038201805480602002602001604051908101604052809291908181526020016000905b82821015610bdc578382906000526020600020018054610b4f90611b78565b80601f0160208091040260200160405190810160405280929190818152602001828054610b7b90611b78565b8015610bc85780601f10610b9d57610100808354040283529160200191610bc8565b820191906000526020600020905b815481529060010190602001808311610bab57829003601f168201915b505050505081526020019060010190610b30565b505050508152505090508573ffffffffffffffffffffffffffffffffffffffff16816000015173ffffffffffffffffffffffffffffffffffffffff1603610c4c5781848481518110610c3157610c30611e27565b5b6020026020010181815250508280610c4890611f44565b9350505b508080600101915050610990565b5060008167ffffffffffffffff811115610c7757610c766112c2565b5b604051908082528060200260200182016040528015610ca55781602001602082028036833780820191505090505b5090506000915060005b8351811015610d30576000848281518110610ccd57610ccc611e27565b5b602002602001015114610d2357838181518110610ced57610cec611e27565b5b6020026020010151828481518110610d0857610d07611e27565b5b6020026020010181815250508280610d1f90611f44565b9350505b8080600101915050610caf565b50809350505050919050565b610d44611219565b6000808381548110610d5957610d58611e27565b5b90600052602060002090600402016040518060800160405290816000820160009054906101000a900473ffffffffffffffffffffffffffffffffffffffff1673ffffffffffffffffffffffffffffffffffffffff1673ffffffffffffffffffffffffffffffffffffffff168152602001600182018054610dd890611b78565b80601f0160208091040260200160405190810160405280929190818152602001828054610e0490611b78565b8015610e515780601f10610e2657610100808354040283529160200191610e51565b820191906000526020600020905b815481529060010190602001808311610e3457829003601f168201915b5050505050815260200160028201805480602002602001604051908101604052809291908181526020018280548015610ea957602002820191906000526020600020905b815481526020019060010190808311610e95575b5050505050815260200160038201805480602002602001604051908101604052809291908181526020016000905b82821015610f83578382906000526020600020018054610ef690611b78565b80601f0160208091040260200160405190810160405280929190818152602001828054610f2290611b78565b8015610f6f5780601f10610f4457610100808354040283529160200191610f6f565b820191906000526020600020905b815481529060010190602001808311610f5257829003601f168201915b505050505081526020019060010190610ed7565b5050505081525050905080915050919050565b60008181548110610faa57610fa9611e27565b5b9060005260206000209060040201600080820160006101000a81549073ffffffffffffffffffffffffffffffffffffffff0219169055600182016000610ff09190611197565b60028201600061100091906111d7565b60038201600061101091906111f8565b505050565b6000818154811061102557600080fd5b90600052602060002090600402016000915090508060000160009054906101000a900473ffffffffffffffffffffffffffffffffffffffff169080600101805461106e90611b78565b80601f016020809104026020016040519081016040528092919081815260200182805461109a90611b78565b80156110e75780601f106110bc576101008083540402835291602001916110e7565b820191906000526020600020905b8154815290600101906020018083116110ca57829003601f168201915b5050505050905082565b82805482825590600052602060002090810192821561112d579160200282015b8281111561112c578251825591602001919060010190611111565b5b50905061113a9190611257565b5090565b828054828255906000526020600020908101928215611186579160200282015b828111156111855782518290816111759190611d55565b509160200191906001019061115e565b5b5090506111939190611274565b5090565b5080546111a390611b78565b6000825580601f106111b557506111d4565b601f0160209004906000526020600020908101906111d39190611257565b5b50565b50805460008255906000526020600020908101906111f59190611257565b50565b50805460008255906000526020600020908101906112169190611274565b50565b6040518060800160405280600073ffffffffffffffffffffffffffffffffffffffff1681526020016060815260200160608152602001606081525090565b5b80821115611270576000816000905550600101611258565b5090565b5b80821115611294576000818161128b9190611197565b50600101611275565b5090565b6000604051905090565b600080fd5b600080fd5b600080fd5b6000601f19601f8301169050919050565b7f4e487b7100000000000000000000000000000000000000000000000000000000600052604160045260246000fd5b6112fa826112b1565b810181811067ffffffffffffffff82111715611319576113186112c2565b5b80604052505050565b600061132c611298565b905061133882826112f1565b919050565b600067ffffffffffffffff821115611358576113576112c2565b5b602082029050602081019050919050565b600080fd5b6000819050919050565b6113818161136e565b811461138c57600080fd5b50565b60008135905061139e81611378565b92915050565b60006113b76113b28461133d565b611322565b905080838252602082019050602084028301858111156113da576113d9611369565b5b835b8181101561140357806113ef888261138f565b8452602084019350506020810190506113dc565b5050509392505050565b600082601f830112611422576114216112ac565b5b81356114328482602086016113a4565b91505092915050565b600080fd5b600067ffffffffffffffff82111561145b5761145a6112c2565b5b611464826112b1565b9050602081019050919050565b82818337600083830152505050565b600061149361148e84611440565b611322565b9050828152602081018484840111156114af576114ae61143b565b5b6114ba848285611471565b509392505050565b600082601f8301126114d7576114d66112ac565b5b81356114e7848260208601611480565b91505092915050565b600067ffffffffffffffff82111561150b5761150a6112c2565b5b602082029050602081019050919050565b600061152f61152a846114f0565b611322565b9050808382526020820190506020840283018581111561155257611551611369565b5b835b8181101561159957803567ffffffffffffffff811115611577576115766112ac565b5b80860161158489826114c2565b85526020850194505050602081019050611554565b5050509392505050565b600082601f8301126115b8576115b76112ac565b5b81356115c884826020860161151c565b91505092915050565b6000806000606084860312156115ea576115e96112a2565b5b600084013567ffffffffffffffff811115611608576116076112a7565b5b6116148682870161140d565b935050602084013567ffffffffffffffff811115611635576116346112a7565b5b611641868287016114c2565b925050604084013567ffffffffffffffff811115611662576116616112a7565b5b61166e868287016115a3565b9150509250925092565b600073ffffffffffffffffffffffffffffffffffffffff82169050919050565b60006116a382611678565b9050919050565b6116b381611698565b81146116be57600080fd5b50565b6000813590506116d0816116aa565b92915050565b6000602082840312156116ec576116eb6112a2565b5b60006116fa848285016116c1565b91505092915050565b600081519050919050565b600082825260208201905092915050565b6000819050602082019050919050565b6117388161136e565b82525050565b600061174a838361172f565b60208301905092915050565b6000602082019050919050565b600061176e82611703565b611778818561170e565b93506117838361171f565b8060005b838110156117b457815161179b888261173e565b97506117a683611756565b925050600181019050611787565b5085935050505092915050565b600060208201905081810360008301526117db8184611763565b905092915050565b6117ec8161136e565b82525050565b600060208201905061180760008301846117e3565b92915050565b6000819050919050565b6118208161180d565b82525050565b600060208201905061183b6000830184611817565b92915050565b600060208284031215611857576118566112a2565b5b60006118658482850161138f565b91505092915050565b61187781611698565b82525050565b600081519050919050565b600082825260208201905092915050565b60005b838110156118b757808201518184015260208101905061189c565b60008484015250505050565b60006118ce8261187d565b6118d88185611888565b93506118e8818560208601611899565b6118f1816112b1565b840191505092915050565b600082825260208201905092915050565b600061191882611703565b61192281856118fc565b935061192d8361171f565b8060005b8381101561195e578151611945888261173e565b975061195083611756565b925050600181019050611931565b5085935050505092915050565b600081519050919050565b600082825260208201905092915050565b6000819050602082019050919050565b60006119a383836118c3565b905092915050565b6000602082019050919050565b60006119c38261196b565b6119cd8185611976565b9350836020820285016119df85611987565b8060005b85811015611a1b57848403895281516119fc8582611997565b9450611a07836119ab565b925060208a019950506001810190506119e3565b50829750879550505050505092915050565b6000608083016000830151611a45600086018261186e565b5060208301518482036020860152611a5d82826118c3565b91505060408301518482036040860152611a77828261190d565b91505060608301518482036060860152611a9182826119b8565b9150508091505092915050565b60006020820190508181036000830152611ab88184611a2d565b905092915050565b611ac981611698565b82525050565b600082825260208201905092915050565b6000611aeb8261187d565b611af58185611acf565b9350611b05818560208601611899565b611b0e816112b1565b840191505092915050565b6000604082019050611b2e6000830185611ac0565b8181036020830152611b408184611ae0565b90509392505050565b7f4e487b7100000000000000000000000000000000000000000000000000000000600052602260045260246000fd5b60006002820490506001821680611b9057607f821691505b602082108103611ba357611ba2611b49565b5b50919050565b60008190508160005260206000209050919050565b60006020601f8301049050919050565b600082821b905092915050565b600060088302611c0b7fffffffffffffffffffffffffffffffffffffffffffffffffffffffffffffffff82611bce565b611c158683611bce565b95508019841693508086168417925050509392505050565b6000819050919050565b6000611c52611c4d611c488461136e565b611c2d565b61136e565b9050919050565b6000819050919050565b611c6c83611c37565b611c80611c7882611c59565b848454611bdb565b825550505050565b600090565b611c95611c88565b611ca0818484611c63565b505050565b5b81811015611cc457611cb9600082611c8d565b600181019050611ca6565b5050565b601f821115611d0957611cda81611ba9565b611ce384611bbe565b81016020851015611cf2578190505b611d06611cfe85611bbe565b830182611ca5565b50505b505050565b600082821c905092915050565b6000611d2c60001984600802611d0e565b1980831691505092915050565b6000611d458383611d1b565b9150826002028217905092915050565b611d5e8261187d565b67ffffffffffffffff811115611d7757611d766112c2565b5b611d818254611b78565b611d8c828285611cc8565b600060209050601f831160018114611dbf5760008415611dad578287015190505b611db78582611d39565b865550611e1f565b601f198416611dcd86611ba9565b60005b82811015611df557848901518255600182019150602085019450602081019050611dd0565b86831015611e125784890151611e0e601f891682611d1b565b8355505b6001600288020188555050505b505050505050565b7f4e487b7100000000000000000000000000000000000000000000000000000000600052603260045260246000fd5b7f4e487b7100000000000000000000000000000000000000000000000000000000600052601160045260246000fd5b6000611e908261136e565b9150611e9b8361136e565b9250828203905081811115611eb357611eb2611e56565b5b92915050565b6000611ec48261180d565b9150611ecf8361180d565b9250828203905081811260008412168282136000851215161715611ef657611ef5611e56565b5b92915050565b6000611f078261180d565b91507f80000000000000000000000000000000000000000000000000000000000000008203611f3957611f38611e56565b5b600182039050919050565b6000611f4f8261136e565b91507fffffffffffffffffffffffffffffffffffffffffffffffffffffffffffffffff8203611f8157611f80611e56565b5b60018201905091905056fea26469706673582212205c0f58824dc07d00e901d44e40ba3a222d09d0e0f1bf0a991728bf6c8ccaac6e64736f6c634300081b0033",
  "linkReferences": {},
  "deployedLinkReferences": {}
}