{
  "_format": "hh-sol-artifact-1",
  "contractName": "HashCorpus",
  "sourceName": "contracts/DocumentHashStore.sol",
  "abi": [
    {
      "inputs": [
        {
          "internalType": "uint256",
          "name": "",
          "type": "uint256"
        }
      ],
      "name": "corpus",
      "outputs": [
        {
          "internalType": "address",
          "name": "sender",
          "type": "address"
        },
        {
          "internalType": "string",
          "name": "metadata",
          "type": "string"
        },
        {
          "internalType": "string",
          "name": "hash",
          "type": "string"
        },
        {
          "internalType": "string",
          "name": "location",
          "type": "string"
        }
      ],
      "stateMutability": "view",
      "type": "function"
    },
    {
      "inputs": [
        {
          "internalType": "string",
          "name": "metadata",
          "type": "string"
        },
        {
          "internalType": "string",
          "name": "hash",
          "type": "string"
        },
        {
          "internalType": "string",
          "name": "location",
          "type": "string"
        }
      ],
      "name": "insert",
      "outputs": [],
      "stateMutability": "nonpayable",
      "type": "function"
    },
    {
      "inputs": [
        {
          "internalType": "uint256",
          "name": "key",
          "type": "uint256"
        }
      ],
      "name": "removeDocument",
      "outputs": [],
      "stateMutability": "nonpayable",
      "type": "function"
    },
    {
      "inputs": [
        {
          "internalType": "address",
          "name": "sender",
          "type": "address"
        }
      ],
      "name": "removeDocumentBySender",
      "outputs": [
        {
          "internalType": "uint256[]",
          "name": "",
          "type": "uint256[]"
        }
      ],
      "stateMutability": "nonpayable",
      "type": "function"
    },
    {
      "inputs": [
        {
          "internalType": "uint256",
          "name": "key",
          "type": "uint256"
        }
      ],
      "name": "retrieveDocument",
      "outputs": [
        {
          "components": [
            {
              "internalType": "address",
              "name": "sender",
              "type": "address"
            },
            {
              "internalType": "string",
              "name": "metadata",
              "type": "string"
            },
            {
              "internalType": "string",
              "name": "hash",
              "type": "string"
            },
            {
              "internalType": "string",
              "name": "location",
              "type": "string"
            }
          ],
          "internalType": "struct HashCorpus.Document",
          "name": "",
          "type": "tuple"
        }
      ],
      "stateMutability": "view",
      "type": "function"
    },
    {
      "inputs": [
        {
          "internalType": "address",
          "name": "sender",
          "type": "address"
        }
      ],
      "name": "retrieveDocumentKeysBySender",
      "outputs": [
        {
          "internalType": "uint256[]",
          "name": "",
          "type": "uint256[]"
        }
      ],
      "stateMutability": "view",
      "type": "function"
    },
    {
      "inputs": [],
      "name": "retrieveLatestKey",
      "outputs": [
        {
          "internalType": "int256",
          "name": "",
          "type": "int256"
        }
      ],
      "stateMutability": "view",
      "type": "function"
    }
  ],
  "bytecode": "0x6080604052348015600f57600080fd5b506119c78061001f6000396000f3fe608060405234801561001057600080fd5b506004361061007d5760003560e01c8063c47aeaf41161005b578063c47aeaf4146100ec578063d18e1a311461011c578063d5df75591461014c578063e7837743146101685761007d565b80632fe99bdc14610082578063a78b794f1461009e578063c1dddb8a146100ce575b600080fd5b61009c60048036038101906100979190611105565b61019b565b005b6100b860048036038101906100b3919061120a565b610293565b6040516100c591906112ff565b60405180910390f35b6100d661038a565b6040516100e3919061133a565b60405180910390f35b6101066004803603810190610101919061120a565b610656565b60405161011391906112ff565b60405180910390f35b61013660048036038101906101319190611381565b610a4c565b60405161014391906114ad565b60405180910390f35b61016660048036038101906101619190611381565b610c99565b005b610182600480360381019061017d9190611381565b610d18565b6040516101929493929190611528565b60405180910390f35b600060405180608001604052803373ffffffffffffffffffffffffffffffffffffffff168152602001858152602001848152602001838152509050600081908060018154018082558091505060019003906000526020600020906004020160009091909190915060008201518160000160006101000a81548173ffffffffffffffffffffffffffffffffffffffff021916908373ffffffffffffffffffffffffffffffffffffffff160217905550602082015181600101908161025e919061178e565b506040820151816002019081610274919061178e565b50606082015181600301908161028a919061178e565b50505050505050565b606060006102a083610656565b90506000815111156103815760005b815181101561037f5760008282815181106102cd576102cc611860565b5b602002602001015111156103725760008282815181106102f0576102ef611860565b5b60200260200101518154811061030957610308611860565b5b9060005260206000209060040201600080820160006101000a81549073ffffffffffffffffffffffffffffffffffffffff021916905560018201600061034f9190610f10565b60028201600061035f9190610f10565b60038201600061036f9190610f10565b50505b80806001019150506102af565b505b80915050919050565b600080600080549050111561064c57600060016000805490506103ad91906118be565b90505b7fffffffffffffffffffffffffffffffffffffffffffffffffffffffffffffffff8113156106435760008082815481106103ed576103ec611860565b5b90600052602060002090600402016040518060800160405290816000820160009054906101000a900473ffffffffffffffffffffffffffffffffffffffff1673ffffffffffffffffffffffffffffffffffffffff1673ffffffffffffffffffffffffffffffffffffffff16815260200160018201805461046c906115b1565b80601f0160208091040260200160405190810160405280929190818152602001828054610498906115b1565b80156104e55780601f106104ba576101008083540402835291602001916104e5565b820191906000526020600020905b8154815290600101906020018083116104c857829003601f168201915b505050505081526020016002820180546104fe906115b1565b80601f016020809104026020016040519081016040528092919081815260200182805461052a906115b1565b80156105775780601f1061054c57610100808354040283529160200191610577565b820191906000526020600020905b81548152906001019060200180831161055a57829003601f168201915b50505050508152602001600382018054610590906115b1565b80601f01602080910402602001604051908101604052809291908181526020018280546105bc906115b1565b80156106095780601f106105de57610100808354040283529160200191610609565b820191906000526020600020905b8154815290600101906020018083116105ec57829003601f168201915b505050505081525050905060008160400151905060008151111561062e575050610643565b828061063990611901565b93505050506103b0565b80915050610653565b6000809150505b90565b60606000808054905067ffffffffffffffff81111561067857610677610fda565b5b6040519080825280602002602001820160405280156106a65781602001602082028036833780820191505090505b5090506000805b60008054905081101561096a5760008082815481106106cf576106ce611860565b5b90600052602060002090600402016040518060800160405290816000820160009054906101000a900473ffffffffffffffffffffffffffffffffffffffff1673ffffffffffffffffffffffffffffffffffffffff1673ffffffffffffffffffffffffffffffffffffffff16815260200160018201805461074e906115b1565b80601f016020809104026020016040519081016040528092919081815260200182805461077a906115b1565b80156107c75780601f1061079c576101008083540402835291602001916107c7565b820191906000526020600020905b8154815290600101906020018083116107aa57829003601f168201915b505050505081526020016002820180546107e0906115b1565b80601f016020809104026020016040519081016040528092919081815260200182805461080c906115b1565b80156108595780601f1061082e57610100808354040283529160200191610859565b820191906000526020600020905b81548152906001019060200180831161083c57829003601f168201915b50505050508152602001600382018054610872906115b1565b80601f016020809104026020016040519081016040528092919081815260200182805461089e906115b1565b80156108eb5780601f106108c0576101008083540402835291602001916108eb565b820191906000526020600020905b8154815290600101906020018083116108ce57829003601f168201915b50505050508152505090508573ffffffffffffffffffffffffffffffffffffffff16816000015173ffffffffffffffffffffffffffffffffffffffff160361095c578184848151811061094157610940611860565b5b602002602001018181525050828061095890611949565b9350505b5080806001019150506106ad565b5060008167ffffffffffffffff81111561098757610986610fda565b5b6040519080825280602002602001820160405280156109b55781602001602082028036833780820191505090505b5090506000915060005b8351811015610a405760008482815181106109dd576109dc611860565b5b602002602001015114610a33578381815181106109fd576109fc611860565b5b6020026020010151828481518110610a1857610a17611860565b5b6020026020010181815250508280610a2f90611949565b9350505b80806001019150506109bf565b50809350505050919050565b610a54610f50565b6000808381548110610a6957610a68611860565b5b90600052602060002090600402016040518060800160405290816000820160009054906101000a900473ffffffffffffffffffffffffffffffffffffffff1673ffffffffffffffffffffffffffffffffffffffff1673ffffffffffffffffffffffffffffffffffffffff168152602001600182018054610ae8906115b1565b80601f0160208091040260200160405190810160405280929190818152602001828054610b14906115b1565b8015610b615780601f10610b3657610100808354040283529160200191610b61565b820191906000526020600020905b815481529060010190602001808311610b4457829003601f168201915b50505050508152602001600282018054610b7a906115b1565b80601f0160208091040260200160405190810160405280929190818152602001828054610ba6906115b1565b8015610bf35780601f10610bc857610100808354040283529160200191610bf3565b820191906000526020600020905b815481529060010190602001808311610bd657829003601f168201915b50505050508152602001600382018054610c0c906115b1565b80601f0160208091040260200160405190810160405280929190818152602001828054610c38906115b1565b8015610c855780601f10610c5a57610100808354040283529160200191610c85565b820191906000526020600020905b815481529060010190602001808311610c6857829003601f168201915b505050505081525050905080915050919050565b60008181548110610cad57610cac611860565b5b9060005260206000209060040201600080820160006101000a81549073ffffffffffffffffffffffffffffffffffffffff0219169055600182016000610cf39190610f10565b600282016000610d039190610f10565b600382016000610d139190610f10565b505050565b60008181548110610d2857600080fd5b90600052602060002090600402016000915090508060000160009054906101000a900473ffffffffffffffffffffffffffffffffffffffff1690806001018054610d71906115b1565b80601f0160208091040260200160405190810160405280929190818152602001828054610d9d906115b1565b8015610dea5780601f10610dbf57610100808354040283529160200191610dea565b820191906000526020600020905b815481529060010190602001808311610dcd57829003601f168201915b505050505090806002018054610dff906115b1565b80601f0160208091040260200160405190810160405280929190818152602001828054610e2b906115b1565b8015610e785780601f10610e4d57610100808354040283529160200191610e78565b820191906000526020600020905b815481529060010190602001808311610e5b57829003601f168201915b505050505090806003018054610e8d906115b1565b80601f0160208091040260200160405190810160405280929190818152602001828054610eb9906115b1565b8015610f065780601f10610edb57610100808354040283529160200191610f06565b820191906000526020600020905b815481529060010190602001808311610ee957829003601f168201915b5050505050905084565b508054610f1c906115b1565b6000825580601f10610f2e5750610f4d565b601f016020900490600052602060002090810190610f4c9190610f8e565b5b50565b6040518060800160405280600073ffffffffffffffffffffffffffffffffffffffff1681526020016060815260200160608152602001606081525090565b5b80821115610fa7576000816000905550600101610f8f565b5090565b6000604051905090565b600080fd5b600080fd5b600080fd5b600080fd5b6000601f19601f8301169050919050565b7f4e487b7100000000000000000000000000000000000000000000000000000000600052604160045260246000fd5b61101282610fc9565b810181811067ffffffffffffffff8211171561103157611030610fda565b5b80604052505050565b6000611044610fab565b90506110508282611009565b919050565b600067ffffffffffffffff8211156110705761106f610fda565b5b61107982610fc9565b9050602081019050919050565b82818337600083830152505050565b60006110a86110a384611055565b61103a565b9050828152602081018484840111156110c4576110c3610fc4565b5b6110cf848285611086565b509392505050565b600082601f8301126110ec576110eb610fbf565b5b81356110fc848260208601611095565b91505092915050565b60008060006060848603121561111e5761111d610fb5565b5b600084013567ffffffffffffffff81111561113c5761113b610fba565b5b611148868287016110d7565b935050602084013567ffffffffffffffff81111561116957611168610fba565b5b611175868287016110d7565b925050604084013567ffffffffffffffff81111561119657611195610fba565b5b6111a2868287016110d7565b9150509250925092565b600073ffffffffffffffffffffffffffffffffffffffff82169050919050565b60006111d7826111ac565b9050919050565b6111e7816111cc565b81146111f257600080fd5b50565b600081359050611204816111de565b92915050565b6000602082840312156112205761121f610fb5565b5b600061122e848285016111f5565b91505092915050565b600081519050919050565b600082825260208201905092915050565b6000819050602082019050919050565b6000819050919050565b61127681611263565b82525050565b6000611288838361126d565b60208301905092915050565b6000602082019050919050565b60006112ac82611237565b6112b68185611242565b93506112c183611253565b8060005b838110156112f25781516112d9888261127c565b97506112e483611294565b9250506001810190506112c5565b5085935050505092915050565b6000602082019050818103600083015261131981846112a1565b905092915050565b6000819050919050565b61133481611321565b82525050565b600060208201905061134f600083018461132b565b92915050565b61135e81611263565b811461136957600080fd5b50565b60008135905061137b81611355565b92915050565b60006020828403121561139757611396610fb5565b5b60006113a58482850161136c565b91505092915050565b6113b7816111cc565b82525050565b600081519050919050565b600082825260208201905092915050565b60005b838110156113f75780820151818401526020810190506113dc565b60008484015250505050565b600061140e826113bd565b61141881856113c8565b93506114288185602086016113d9565b61143181610fc9565b840191505092915050565b600060808301600083015161145460008601826113ae565b506020830151848203602086015261146c8282611403565b915050604083015184820360408601526114868282611403565b915050606083015184820360608601526114a08282611403565b9150508091505092915050565b600060208201905081810360008301526114c7818461143c565b905092915050565b6114d8816111cc565b82525050565b600082825260208201905092915050565b60006114fa826113bd565b61150481856114de565b93506115148185602086016113d9565b61151d81610fc9565b840191505092915050565b600060808201905061153d60008301876114cf565b818103602083015261154f81866114ef565b9050818103604083015261156381856114ef565b9050818103606083015261157781846114ef565b905095945050505050565b7f4e487b7100000000000000000000000000000000000000000000000000000000600052602260045260246000fd5b600060028204905060018216806115c957607f821691505b6020821081036115dc576115db611582565b5b50919050565b60008190508160005260206000209050919050565b60006020601f8301049050919050565b600082821b905092915050565b6000600883026116447fffffffffffffffffffffffffffffffffffffffffffffffffffffffffffffffff82611607565b61164e8683611607565b95508019841693508086168417925050509392505050565b6000819050919050565b600061168b61168661168184611263565b611666565b611263565b9050919050565b6000819050919050565b6116a583611670565b6116b96116b182611692565b848454611614565b825550505050565b600090565b6116ce6116c1565b6116d981848461169c565b505050565b5b818110156116fd576116f26000826116c6565b6001810190506116df565b5050565b601f82111561174257611713816115e2565b61171c846115f7565b8101602085101561172b578190505b61173f611737856115f7565b8301826116de565b50505b505050565b600082821c905092915050565b600061176560001984600802611747565b1980831691505092915050565b600061177e8383611754565b9150826002028217905092915050565b611797826113bd565b67ffffffffffffffff8111156117b0576117af610fda565b5b6117ba82546115b1565b6117c5828285611701565b600060209050601f8311600181146117f857600084156117e6578287015190505b6117f08582611772565b865550611858565b601f198416611806866115e2565b60005b8281101561182e57848901518255600182019150602085019450602081019050611809565b8683101561184b5784890151611847601f891682611754565b8355505b6001600288020188555050505b505050505050565b7f4e487b7100000000000000000000000000000000000000000000000000000000600052603260045260246000fd5b7f4e487b7100000000000000000000000000000000000000000000000000000000600052601160045260246000fd5b60006118c982611321565b91506118d483611321565b92508282039050818112600084121682821360008512151617156118fb576118fa61188f565b5b92915050565b600061190c82611321565b91507f8000000000000000000000000000000000000000000000000000000000000000820361193e5761193d61188f565b5b600182039050919050565b600061195482611263565b91507fffffffffffffffffffffffffffffffffffffffffffffffffffffffffffffffff82036119865761198561188f565b5b60018201905091905056fea26469706673582212201f7818ed85ad067d736ae420036e2174de5da3956f93940bae827409b3fa7abc64736f6c634300081b0033",
  "linkReferences": {},
  "deployedLinkReferences": {}
}